:040000000200DE32EA
:01000B0032C2
:0100130032BA
:01001B0032B2
:0100230032AA
:01002B0032A2
:01003300329A
:03003B0002173D6C
:0300430002135154
:01004B003282
:01005300327A
:01005B003272
:01006300326A
:03006B000213CFAE
:100070000000E2FBEAF2802C0000E0FBEAF08024C2
:10008000E6B50202EBF62200E2B50202EBF2220034
:10009000E0B50202EBF02230F6E0A88220F5D3EAC8
:1000A000C6F582228B822230F6E6A88220F5D9801E
:0100B000CF80
:030146000200B103
:0300B100020257F1
:10014900AF82BFA502800ABFA6028009BFA70E80A1
:1001590008900001229000022290000422900000E1
:1001690022AF82BFA800500302022FEF243D5003A3
:1001790002022FEF2458FF240A83F582EF241F83FC
:10018900F583E473C3C7CBCFD3DFE7EBE3EFF3F733
:1001990003070B0F131723D7DB1B1FFBFF272B01AC
:1001A9000101010101010101010101020202020231
:1001B900020201010202010102029000E222900002
:1001C900E9229000EA229000B5229000B622900020
:1001D900B3229000B4229000B7229000CC22900064
:1001E900CD229001832290018A22900192229001CE
:1001F900942290019F229001CB2290022122900209
:100209002322900224229002252290022622900283
:10021900272290006F229000702290022A229002D9
:100229009F229002A0229000002212134D1210A0CA
:100239001213921223051204E9120EDC1214D5438B
:10024900B54043B94043B54085B9B9D2AF2212226E
:100259002B12023374DCC0E07448C0E07480C0E043
:1002690012411B15811581158174E9C0E07448C0DC
:10027900E07480C0E012411B15811581158190033E
:10028900E81210DE1248D7122C8F9003E81210DE04
:1002990075B100124004123FCB12085E12224D12B2
:0402A900100A80ECCB
:1048DC00534D4B2076616C7068610D0A004445564F
:1048EC00494345207649643A307832353861207036
:0C48FC0049643A3078303034390A0D003D
:1002AD00AF82BFA502800ABFA6028009BFA70E803C
:1002BD00089000012290000222900004229000007C
:1002CD0022AF82BFA8005003020393EF243D5003D9
:1002DD00020393EF2458FF240A83F582EF241F8332
:1002ED00F583E473272B2F3337434B4F4753575B1E
:1002FD00676B6F73777B873B3F7F835F638B8F0369
:10030D0003030303030303030303030303030303B0
:10031D00030303030303030303039000E22290008E
:10032D00E9229000EA229000B5229000B6229000BA
:10033D00B3229000B4229000B7229000CC229000FE
:10034D00CD229001832290018A2290019222900168
:10035D00942290019F229001CB22900221229002A3
:10036D00232290022422900225229002262290021E
:10037D00272290006F229000702290022A22900274
:10038D009F229002A022900000220228510228569E
:10039D00AE82AF839003F7E0FCA3E0FDEEB504055C
:1003AD00EFB50501229003F7EEF0EFA3F0900000FA
:1003BD007401F0900001EEF0EFA3F0900000022820
:1003CD005BAE82AF839003F9E0FCA3E0FDEEB504D4
:1003DD0005EFB50501229003F9EEF0EFA3F09000C3
:1003ED00007402F0900001EEF0EFA3F09000000217
:0203FD00285B7B
:044CBD0000000000F3
:1003FF00AF82BFA502800ABFA6028009BFA70E80E9
:10040F000890000122900002229000042290000028
:10041F0022AF82BFA80050030204E5EF243D500332
:10042F000204E5EF2458FF240A83F582EF241F838B
:10043F00F583E473797D818589959DA199A5A9ADF2
:10044F00B9BDC1C5C9CDD98D91D1D5B1B5DDE10446
:10045F00040404040404040404040404040404044D
:10046F00040404040404040404049000E222900031
:10047F00E9229000EA229000B5229000B622900067
:10048F00B3229000B4229000B7229000CC229000AB
:10049F00CD229001832290018A2290019222900115
:1004AF00942290019F229001CB2290022122900250
:1004BF0023229002242290022522900226229002CB
:1004CF00272290006F229000702290022A22900221
:1004DF009F229002A022900000227508007509004B
:1004EF00750A007F00BF0E00501BEF2403F582E456
:1004FF003400F583E4F0EF2411F582E43400F58342
:10050F00E4F00F80E022E5822403F582E43400F565
:10051F0083E0F58222850A822285098222E582758F
:10052F00F01CA4FF249AFDE4344BFEE50B250BFCD5
:10053F002DF582E43EF583E493FDA3E493FEC0071B
:10054F00C006C005C004122C4ED004D005D006D072
:10055F0007E50C60067A197B4980047A1C7B498B6E
:10056F00017B80C007C006C005C004C002C001C027
:10057F0003C005C0067408C0E07449C0E0EBC0E0DA
:10058F0012411BE58124F8F581D004D005D006D0A7
:10059F00078D028E03C3EA9420EB9452403F743FC1
:1005AF009A74529B4037E50C60098D03741F5BF5FD
:1005BF000A800C90002175F000120E4A750A00AAED
:1005CF000A7B00C002C0037421C0E07449C0E0740C
:1005DF0080C0E012411BE58124FBF58122E50A6012
:1005EF0033E50A75F08CA4249AFA744B35F0FBEFBF
:1005FF002AFAE43BFBEC2AF582E43BF583E493FC17
:10060F00A3E493FF8C028F03BA0105BB00028004A1
:10061F008C058F06850C1A8D828E83C006C005123D
:10062F0026A2E582D005D006700122850C6F8D823F
:10063F008E83C006C005124005E582D005D0067036
:10064F0001228D048E07C3EC94E0EF9400403E74BA
:10065F00E79CE49F4037E50C60198D0374075BF549
:10066F00F005F07401800225E0D5F0FBF582120E43
:10067F009980178D0374075BF5F005F07401800204
:10068F0025E0D5F0FBF582120E9E020A6CC3EC94A6
:10069F0004EF9400402674A49CE49F401FE50C6077
:1006AF000D8D1290002175F000120DDA800B8D1355
:1006BF0090002175F000120E12020A6CC3EC94A583
:1006CF00EF9400403F74A79CE49F4038E50C602EE8
:1006DF008D03BBA502800ABBA602800BBBA71480AB
:1006EF000C7A017B0080107A027B00800A7A047BEF
:1006FF000080047A007B008A828B8302039D900026
:10070F000002039DC3EC94A8EF9400500302084429
:10071F00C374C29CE49F5003020844E50C700302AB
:10072F00083E8D07BFA8005003020833EF243D5049
:10073F0003020833EF2458FF240A83F582EF241FA6
:10074F0083F583E4738A91989FA6BBC7CDC1D3D994
:10075F00DFF1F7FD03090F21ADB4151BE5EB272DD5
:10076F000707070707070707070707070707070809
:10077F0008080807070808070708087CE27F000237
:10078F0008377CE97F000208377CEA7F00020837D0
:10079F007CB57F000208377CB67F000208377CB338
:1007AF007F000208377CB47F000208377CB77F00D8
:1007BF0080767CCC7F0080707CCD7F00806A7C83CC
:1007CF007F0180647C8A7F01805E7C927F018058EC
:1007DF007C947F0180527C9F7F01804C7CCB7F017A
:1007EF0080467C217F0280407C237F02803A7C24DC
:1007FF007F0280347C257F02802E7C267F0280281A
:10080F007C277F0280227C6F7F00801C7C707F00A2
:10081F0080167C2A7F0280107C9F7F02800A7CA03A
:10082F007F0280047C007F008C828F830203CE9036
:10083F0000000203CEC005C0067435C0E07449C085
:10084F00E07480C0E012411BE58124FBF581221288
:10085F000528E5827003F5822290001FE4F0FFBFA8
:10086F000E00503990001FE0FEE07031EF2411F5BB
:10087F0082E43400F583E0FD8F82C007C006C00517
:10088F00120515AC82D005D006D007EC6205EE42FA
:10089F000590001FED24FFE433F00F80C290001F7E
:1008AF00E0FFE07005F5098F82227F00BF0E005038
:1008BF006C8F82C007120515AE82D007EF2411F599
:1008CF0082E43400F583E0FDEE6205ED604C9000AC
:1008DF00207401F07C00BC05005033900020E0FB39
:1008EF005D6021EE5203EB24FFE433F50C8F0B8C8C
:1008FF0082C007C006C005C00412052CD004D00565
:10090F00D006D0070C900020E025E0F080C8EF243F
:10091F0011F582E43400F583EEF00F808F75090036
:10092F0090001FE0F58222122E81E50970238508C1
:10093F008212228D8508821222E9AF82C00712220D
:10094F00FBD007E5082403F582E43400F583EFF4C8
:10095F00F085083490005D75F00012316574F32551
:10096F00084007E50804F5088006750800750901B9
:03097F000231F54D
:104908004B45593A203078253034782025730D0AE4
:1049180000555000444F574E004348414E474544C8
:10492800204C415945523A2025640D0A00554E52F3
:1049380045434F474E495A4544204B45593A203044
:0849480078253034780D0A00D7
:06013700750D00750E00BD
:10098200AF82BFA502800ABFA6028009BFA70E8060
:1009920008900001229000022290000422900000A0
:1009A20022AF82BFA8005003020A68EF243D500321
:1009B200020A68EF2458FF240A83F582EF241F837A
:1009C200F583E473FC0004080C1820241C282C3046
:1009D2003C4044484C505C1014545834386064090C
:1009E2000A0A0A0A0A0A0A0A0A0A0A0A0A0A0A0A65
:1009F2000A0A0A0A0A0A0A0A0A0A9000E22290006D
:100A0200E9229000EA229000B5229000B6229000DE
:100A1200B3229000B4229000B7229000CC22900022
:100A2200CD229001832290018A229001922290018C
:100A3200942290019F229001CB22900221229002C7
:100A42002322900224229002252290022622900242
:100A5200272290006F229000702290022A22900298
:100A62009F229002A022900000221215C5AF82BFE1
:100A7200010990005FE06003020ACE020A80900042
:100A820021E50DF0E50D450E900021F0756F2975F9
:100A9200700075710075720875730090002175F011
:100AA20000124056E5828583F045F0601E756F2185
:100AB2007570007571007572087573009000297564
:100AC200F000123F579000210203972290003174E8
:100AD20006F0900032E50DF0E50D450E900032F083
:100AE200756F477570007571007572167573009099
:100AF200003175F000124056E5828583F045F060C2
:100B02001E756F3175700075710075721675730000
:100B120090004775F000123F5790003102039A226D
:100B2200AD82AE83AFF074022DFDE43EFE7C06C0C2
:100B320007C006C005C0041215C5AB82D004D0059B
:100B4200D006D007BB010E90005FE060087D337EC7
:100B5200007F007C147B008C021CEA60158D828E63
:100B6200838FF0124885FAA3AD82AE83EA60E80B68
:100B720080E58B8222AD82AE83AFF0C007C006C093
:100B8200051215C5AC82D005D006D007BC01409035
:100B9200005FE0603A7C00BC14005012EC2433FA8F
:100BA200E43400FB8A828B83E070030C80E9ECC49E
:100BB2000354F8FBEC2433F582E43400F583E0F5CA
:100BC20082C003120EB0AC82D003EC4BF5822274C9
:100BD200022DFDE43EFE8D828E838FF0124885F554
:100BE2008222AD82AE83AFF0E50F7003F58222C0A0
:100BF20007C006C0051215C5AC82D005D006D007C5
:100C0200BC014890005FE06042E50FC423541FFC22
:100C1200BC14005032EC2433F582E43400F583E551
:100C22000F5407F5F005F07C017B008006EC2CFCEC
:100C3200EB33FBD5F0F7E07A005204EA5203EC4BB7
:100C420024FFE433F582227582002274022DFDE432
:100C52003EFE7C00BC0600501BEC2DF9E43EFA8FF0
:100C62000389828A838BF0124885B50F047582014D
:100C7200220C80E075820022AD82AE83AFF07CFF51
:100C82007B00C3EB64809486502974022DF8E43E05
:100C9200F98F02EB28F8E439F9888289838AF01205
:100CA2004885FAB56F02800BBCFF05EA70028B041F
:100CB2000B80CFBB061EBCFF012274022DFDE43E59
:100CC200FEEC2DFCE43EFB8F028C828B838AF0E5E6
:100CD2006F023FCC22AD82AE83AFF074022DFDE4F1
:100CE2003EFE7C00BC06005021EC2DF9E43EFA8F5A
:100CF2000389828A838BF0124885B56F0A89828ABA
:100D0200838BF0E4123FCC0C80DA22AD82AE83AF4B
:100D1200F0E510C423541FFCBC1400503674022D9D
:100D2200FDE43EFEEC2DFCE43EFB8F02E510540791
:100D3200F5F005F07401800225E0D5F0FBFF8C820E
:100D42008B838AF012488542078C828B838AF0EF6C
:100D5200023FCCAE107F00C006C0077450C0E074E2
:100D620049C0E07480C0E012411BE58124FBF5819B
:100D720022AD82AE83AFF0E511C423541FFCBC1434
:100D820000503774022DFDE43EFEEC2DFCE43EFBE8
:100D92008F02E5115407F5F005F07401800225E099
:100DA200D5F0FBF4FF8C828B838AF01248855207C0
:100DB2008C828B838AF0EF023FCCAE117F00C0069B
:100DC200C007746EC0E07449C0E07480C0E0124194
:100DD2001BE58124FBF58122AD82AE83AFF0C00713
:100DE200C006C0051215C5AC82D005D006D007BC1E
:100DF200011290005FE0600C85121090003175F0D6
:100E020000020D0D85126F8D828E838FF0020C7A97
:100E1200AD82AE83AFF0C007C006C0051215C5ACE7
:100E220082D005D006D007BC011290005FE0600CB2
:100E320085131190003175F000020D7385136F8DCB
:100E4200828E838FF0020CD7AD82AE83AFF0C007E3
:100E5200C006C0051215C5AC82D005D006D007BCAD
:100E6200011890005FE06012756F00757014757163
:100E72000090003375F000023FAC74022DFDE43E99
:100E8200FE756F007570067571008D828E838FF00E
:100E9200023FAC850D8222E582420D22E582F452A8
:100EA2000D2285820D22750D0022850E8222AF82CF
:100EB2007E00EFC4540FFD60048D077E04EF030330
:100EC200543FFD60088D078E0574022DFEEFC3139B
:0A0ED20060058E07EF04FE8E8222F9
:104950006164645F6B65795F6269743A2063616E5C
:104960002774206164643A20253032580A00646557
:104970006C5F6B65795F6269743A2063616E27745E
:0C4980002064656C3A20253032580A0093
:100EDC0090005DE4F090005EF090005F04F022AFB3
:100EEC0082BFA502800ABFA6028009BFA70E800898
:100EFC009000012290000222900004229000002217
:100F0C00AF82BFA8005003020FD1EF243D50030263
:100F1C000FD1EF2458FF240A83F582EF241F83F5A9
:100F2C0083E47365696D717581898D85919599A53A
:100F3C00A9ADB1B5B9C5797DBDC19DA1C9CD0F0F05
:100F4C000F0F0F0F0F0F0F0F0F0F0F0F0F0F0F0FA5
:100F5C000F0F0F0F0F0F0F0F0F9000E2229000E9F1
:100F6C00229000EA229000B5229000B6229000B3A5
:100F7C00229000B4229000B7229000CC229000CD99
:100F8C00229001832290018A229001922290019456
:100F9C002290019F229001CB2290022122900223C9
:100FAC0022900224229002252290022622900227CF
:100FBC002290006F229000702290022A2290029FB1
:100FCC00229002A02290000022AF82D20010AF0229
:100FDC00C2009000E0E004547FFE9000E1E0FDEEE2
:100FEC00B5050280149000E0E02460F582E4340042
:100FFC00F583EFF09000E0EEF0A20092AF22121514
:10100C00CCE5827001229000E0E0FF9000E1E0FE70
:10101C00EFB5060122E59A30E201229011807407A7
:10102C00F07F00BF200050399000E1E0FE9000E01E
:10103C00E0FDEEB5050280298F060EEE2480FEE45D
:10104C003411FD9000E1E02460F582E43400F58376
:10105C00E08E828D83F09000E1E004547FF00F80ED
:10106C00C2BF200050128F060EEE2480F582E434AD
:10107C0011F583E4F00F80E9539D80439D21439A41
:10108C0004227515069000E20211387516069000C0
:10109C00E202122875B20875BC02E5BC20E20575A7
:1010AC00B10080F643BC0143B20422AE82AF83BED2
:1010BC000005BF0003801A0F801375B100000000FB
:1010CC0000000000000000000000000000DEEBDF6C
:1010DC00E922AE82AF838E048F051EBEFF011FEC8A
:1010EC004D60089003E81210B780EB22E493F58270
:1010FC0022AE82AF83C2AF8FF78EFB8570FC856FFB
:10110C00F275F30575F40A75F50975F6060000001D
:10111C000075F700D2AF22756FE675700090EC0089
:10112C000210FD756F6E8514700210FDAE82AF83D8
:10113C0090EC00C007C0061210F8AD82D006D007A4
:10114C00BD5A1590EC01C007C0061210F8AD82D044
:10115C0006D007BDA50280047582002290EC02C067
:10116C0007C0061210F8AD82D006D007EDB51502F7
:10117C008004758200227D007C00C3EC9515502BF9
:10118C008C037A0074032BFB74EC3AFA8B828A83FF
:10119C00C007C006C005C0041210F8AB82D004D042
:1011AC0005D006D007EB2DFD0C80CFAC157B007461
:1011BC00032CFC74EC3BFB8C828B83C007C006C0F9
:1011CC00051210F8AC82D005D006D007ECB505029C
:1011DC008004758200227D00C3ED9515503AED2EEA
:1011EC00FBE43FFC8D028A017A00740329F974EC4C
:1011FC003AFA89828A83C007C006C005C004C003BE
:10120C001210F8AA82D003D004D005D006D0078BD8
:10121C00828C83EAF00D80C075820122AE82AF838E
:10122C0090EC00C007C0061210F8AD82D006D007B3
:10123C00BD5A2990EC01C007C0061210F8AD82D03F
:10124C0006D007BDA51690EC02C007C0061210F818
:10125C00AD82D006D007EDB516028005751700805B
:10126C0003751701E517F51860417D00C3ED951660
:10127C0050398D047B0074032CFC74EC3BFB8C828A
:10128C008B83C007C006C0051210F8AC82D005D005
:10129C0006D007ED2EF582E43FF583E0FBECB503B9
:1012AC0002800575180080030D80C1E518600122CD
:1012BC00C007C00612112375145A90EC0012112F9E
:1012CC007514A590EC0112112F85161490EC0212D6
:1012DC00112FD006D0077D007C00C3EC9516504230
:1012EC008C037A0074032BFB74EC3AFAEC2EF8E4C2
:1012FC003FF988828983E0F5148B828A83C007C00A
:10130C0006C005C004C001C00012112FD000D001CE
:10131C00D004D005D006D00788828983E02DFD0C3F
:10132C0080B8AF167E0074032FFF74EC3EFE8F82E4
:10133C008E838D1402112FC2AF75F0A5745A02FF63
:10134C0000758F0122C021C0E0C0F0C082C083C0F4
:10135C0007C006C005C004C003C002C001C000C065
:10136C00D075D000120936D0D0D000D001D002D028
:10137C0003D004D005D006D007D083D082D0F0D0D3
:10138C00E0D0210200B475D84075ADFF75AEE6759E
:10139C00AF0075870075AB0075AC0053A9BFC201D7
:1013AC0010D902800010D802800043A94022AF82DD
:1013BC0053A9BFD2018FAA43A94030010575B100D2
:1013CC0080F82253A9BF10D9028002C20143A94060
:1013DC0032AE82C0061213BAD0068E82020FD5AF7F
:1013EC0082BFA502800ABFA6028009BFA70E800893
:1013FC009000012290000222900004229000002212
:10140C00AF82BFA80050030214D1EF243D50030259
:10141C0014D1EF2458FF240A83F582EF241F83F59F
:10142C0083E47365696D717581898D85919599A535
:10143C00A9ADB1B5B9C5797DBDC19DA1C9CD1414F6
:10144C001414141414141414141414141414141450
:10145C001414141414141414149000E2229000E9BF
:10146C00229000EA229000B5229000B6229000B3A0
:10147C00229000B4229000B7229000CC229000CD94
:10148C00229001832290018A229001922290019451
:10149C002290019F229001CB2290022122900223C4
:1014AC0022900224229002252290022622900227CA
:1014BC002290006F229000702290022A2290029FAC
:1014CC00229002A022900000229002E8E4F0900208
:1014DC00E9F09002EAF09002EBF09002ECF0C2021C
:1014EC009002EEE4F09002EDF0F522F523F524F5F0
:1014FC0025F526F59675945F7595117591C043A9E0
:10150C000122AE82AF837D00BDFF00501AE59930F9
:10151C00E215900028C007C006C0051210B7D00510
:10152C00D006D0070D80E17D007531088E828F8347
:10153C008DF01221AB539CE0439C0843990422AEDE
:10154C0082AF837D00BDFF00501AE59A30E2159002
:10155C000028C007C006C0051210B7D005D006D0B1
:10156C00070D80E17D007532168E828F838DF0120F
:10157C0021EB539D80439D16439A0422AE82AF8388
:10158C007D00BDFF00501AE59A30E215900028C08E
:10159C0007C006C0051210B7D005D006D0070D80C5
:1015AC00E17D007532038E828F838DF01221EB5317
:1015BC009D80439D03439A04229002EBE0F5822226
:1015CC009002E8E0FFBF0203D38001C3E433F5824D
:1015DC0022C2AF9002EF75F00012218DD2AF9002B3
:1015EC00EFE0FF9002F0E0FE8F05BD0002802CBD05
:1015FC000103021687BF02030216BCBF21030216A9
:10160C00E9BF80028050BF8103021697BF8203029C
:10161C0016D9BFA103021711021736BE010280149E
:10162C00BE03028015BE05028016BE07028017BEDF
:10163C00091D80159002EF0218639002EF02188FBB
:10164C009002EF021828021A0D9002EF021967435C
:10165C00970843970222BE0002800ABE0602800B46
:10166C00BE0811800C9002EF021A149002EF021BBC
:10167C0038021EEF43970843970222BE0B069002D6
:10168C00EF0219BF43970843970222BE0002800A5B
:10169C00BE0602800BBE0A11800C9002EF021A4D9E
:1016AC009002EF021B38021F074397084397022250
:1016BC00BE01028005BE030E80069002EF0218BB2D
:1016CC009002EF02191943970843970222BE0006B5
:1016DC009002EF021A9043970843970222BE090228
:1016EC00800ABE0A02800BBE0B14800C9002EF0223
:1016FC001F469002EF021FB59002EF021FD74397CF
:10170C000843970222BE0102800ABE0202800BBE71
:10171C00031180099002EF021F1C021FC59002EFFB
:10172C0002200C43970843970222439708439702E1
:10173C0022C021C0E0C0F0C082C083C007C006C078
:10174C0005C004C003C002C001C000C0D075D000E9
:10175C00AF92AE93EF6063EF30E3095392F7122C24
:10176C006E0218095392EF53929FEF30E709539290
:10177C007F1214D5021809EF30E4095392EF1215B9
:10178C00DD021809EF30E2085392FB122C6E806DCB
:10179C00EF30E1085392FD122C658061EF30E05D73
:1017AC005392FE4391200000000000005391DF1281
:1017BC0014D5439701122C6E8043EE6040EE30E658
:1017CC00085393BF439A018034EE30E5055393DF01
:1017DC00802BEE30E40B5393EF12203A43970180A9
:1017EC001CEE30E2055393FB8013EE30E10553936E
:1017FC00FD800AEE30E0065393FE122095D0D0D037
:10180C0000D001D002D003D004D005D006D007D030
:10181C0083D082D0F0D0E0D0210200B4AE82AF836E
:10182C009002EEE4F074022EFEE43FFF8E828F8372
:10183C00E0FCA3E04C60089002E87401F080059095
:10184C0002E8E4F08E828F83E09002E9F0539BF083
:10185C0043970243970422AE82AF839002EEE4F0EA
:10186C008E828F83E0540F70138E828F83A3A3E03C
:10187C00FEA3E0FFBE0105BF0002C202539BF04372
:10188C00970422AE82AF839002EEE4F08E828F83B7
:10189C00E0540F70138E828F83A3A3E0FEA3E0FFAE
:1018AC00BE0105BF0002D202539BF043970422AE47
:1018BC0082AF839002EEE4F08E828F83E0FD5305BD
:1018CC000FBD02428E828F83A3A3E0FCA3E04C7079
:1018DC00358E828F83A3A3A3A3E0FEA3E0FF4E70FB
:1018EC00085397F75397FD801DBE8108BF00055321
:1018FC0099F78012BE8208BF0005539AF780074300
:10190C00970843970222539BF043970422AE82AF71
:10191C00839002EEE4F08E828F83E0FD53050FBDC1
:10192C00022B8E828F83A3A3A3A3E0FEA3E0FFBEB2
:10193C008108BF0005439908801ABE8208BF0005C4
:10194C00439A08800F4397084397028007439708F0
:10195C0043970222539BF043970422AE82AF8390AD
:10196C0002EEE4F0E596603E8E828F83A3A3E0FE48
:10197C00A3E0FF4E600A8E048F05BC0121BD001E42
:10198C009002EAEEF0EE60089002E87402F0800635
:10199C009002E87401F0539BF0439704800E439738
:1019AC00084397028006439708439702539BF043E2
:1019BC00970422AE82AF839002EEE4F08E828F8386
:1019CC00A3A3E0FCA3E04C70318E828F83A3A3A36E
:1019DC00A3E0FEA3E0FF4E700A539BF04397044331
:1019EC00970222BE010DBF000A539BF0439704439C
:1019FC009702224397084397022243970843970282
:101A0C002243970843970222AE82AF839002EE7472
:101A1C0002F08E828F83E0540F701F3002089011F9
:101A2C00087402F08005901108E4F0901109E4F0BC
:101A3C00539BF0439B02439704224397084397021E
:101A4C0022AE82AF83E0FD53050FBD01308E828F35
:101A5C0083A3A3A3A3E0FEA3E0FF4E6006BE011682
:101A6C00BF0013901108E4F0901109F0539BF04360
:101A7C009B024397042243970843970222439708FB
:101A8C0043970222AE82AF83E0FD53050FBD0202E5
:101A9C008003021B318E828F83A3A3A3A3E0FEA33A
:101AAC00E0FFBE801BBF0018AC97530402E4A2E712
:101ABC0013CC13CC901108ECF0901109E4F0805B7E
:101ACC00BE8127BF0024AC99530408E423CCC42363
:101ADC00541F6CCC541FCC6CCC30E40244E09011FD
:101AEC0008ECF0901109E4F08031BE8227BF00248D
:101AFC00AE9A530608E423CEC423541F6ECE541F53
:101B0C00CE6ECE30E40244E0901108EEF090110954
:101B1C00E4F0800743970843970222539BF0439BC2
:101B2C000243970422439708439702228582278514
:101B3C008328A3A3E0FCA3E0FBBB0140904ADDE4B7
:101B4C0093FAA3E493FD8A6F8D707571808A828DF0
:101B5C0083E493F5727573009000E875F000123F02
:101B6C00579002F774E8F07400A3F0E4A3F090002F
:101B7C00E8E09002FAF0E4A3F0021EACBB02028093
:101B8C0003021CAC904AE1E493FDC3EC9D400302BC
:101B9C001CAC904AE2E493FAA3E493FDEC75F002DA
:101BAC00A42AF582ED35F0F583E493FAA3E493FDD2
:101BBC0074092AF529E43DF52A8A6F8D70757180B8
:101BCC008A828D83E493F5727573009000E875F04A
:101BDC0000C005C002123F57D002D0058A828D8307
:101BEC00E49324E8F52BE43400F52CA829A92A85E4
:101BFC002B2D852C2E752F00880289078A828F83C6
:101C0C00E493FDA3E493FE8D6F8E707571808D82CD
:101C1C008E83E493F572757300852D82852E8385F2
:101C2C002FF0C007C002C001C000123F57D000D037
:101C3C0001D002D0078A828F83E493FAA3E493FF46
:101C4C008A828F83E493252BF52BE4352CF52C74A9
:101C5C000228F8E439F988828983E493FEA3E4939B
:101C6C004E708C9000EAE0FEA3E04E7013E52BC39F
:101C7C0094E8FEE52C9400FF9000EAEEF0EFA3F060
:101C8C009002F774E8F07400A3F0E4A3F09000EA7B
:101C9C00E0FEA3E0FF9002FAEEF0EFA3F0021EAC20
:101CAC00E4BB030104FF603AEC7037756FD37570B9
:101CBC004A757180904AD3E493F572757300900065
:101CCC00E875F000123F579002F774E8F07400A327
:101CDC00F0E4A3F09000E8E09002FAF0E4A3F00244
:101CEC001EACEF7003021DA07F00EC24FFFDEF344F
:101CFC00FFFE904AE4E493F97A00C3ED99EE648018
:101D0C008AF063F08095F04003021DA0904AE5E450
:101D1C0093FDA3E493FE1CBCFF011FEC2CFCEF33E2
:101D2C00FFEC2DF582EF3EF583E493FEA3E493FFE5
:101D3C009000E87402F09000E904F0740124E9FCCE
:101D4C00E43400FD8E828F83E493FA602C0EBE0087
:101D5C00010F8C828D83EAF074012CF9E43DFA8931
:101D6C00828A83E4F00429FCE43AFD9000E8E0FA6E
:101D7C000A0A9000E8EAF080CB9002F774E8F0745D
:101D8C0000A3F0E4A3F09000E8E09002FAF0E4A3E2
:101D9C00F0021EACBB2276852782852883A3A3A3E1
:101DAC00A3E0FE702F9002FA7444F0E4A3F0756F78
:101DBC008C757049757180757244F5739000E8F5F7
:101DCC00F0123F579002F774E8F07400A3F0E4A30C
:101DDC00F0021EACBE012F9002FA74A6F0E4A3F040
:101DEC00756FD07570497571807572A6F57390001A
:101DFC00E8F5F0123F579002F774E8F07400A3F086
:101E0C00E4A3F0021EAC43970843970222BB2102C5
:101E1C008003021EA5852782852883A3A3A3A3E0A4
:101E2C00FE7036756F9175704A757180904A91E4A9
:101E3C0093F5727573009000E875F000123F57909F
:101E4C0002F774E8F07400A3F0E4A3F09000E8E06B
:101E5C009002FAF0E4A3F08047BE0136756FAA75C4
:101E6C00704A757180904AAAE493F572757300906C
:101E7C0000E875F000123F579002F774E8F0740018
:101E8C00A3F0E4A3F09000E8E09002FAF0E4A3F0F1
:101E9C00800E4397084397022243970843970222E8
:101EAC00852782852883A3A3A3A3A3A3E0FEA3E095
:101EBC00FF9002FAE0FCA3E0FDC3EE9CEF9D400412
:101ECC008C068D079002F7E0FBA3E0FCA3E0FD8EEF
:101EDC006F8F708B828C838DF01220BE1220CE43BC
:101EEC009704229002EE7402F09002EAE09011083E
:101EFC00F0539BF0439B01439704229002EE740233
:101F0C00F0901108E4F0539BF0439B01439704229B
:101F1C00A3A3E0FEA3E0FDBD0319BE0316901108B8
:101F2C0012294A539BF0439B084397049002EE748A
:101F3C0002F02243970843970222AE82AF83A3A3F9
:101F4C00E0FCA3E0FABA02028005BA0355802D8E9C
:101F5C00828F83A3A3A3A3E0FAA3E04A704A74067A
:101F6C002EF582E43FF583E0FEA3E0FFBE0139BF0E
:101F7C0000369002EE7404F0439701228C067F0029
:101F8C00BE050DBF000A9002EE7405F043970122C6
:101F9C007D00BC0313BD00109002EE7406F0439755
:101FAC00012243970843970222A3A3E0A3E09002E7
:101FBC00EDF0539BF0439704229002EDE090110852
:101FCC00F0539BF0439B0143970422AE82AF83A353
:101FDC00A3A3A3E0FCA3E0FD4C700D8E828F83A322
:101FEC00A3E09002EBF08011BC010EBD000B8E82C1
:101FFC008F83A3A3E09002ECF0539BF04397042251
:10200C00A3A3A3A3E0FEA3E0FF4E700A9002EBE0B3
:10201C00901108F0800EBE010BBF00089002ECE09E
:10202C00901108F0539BF0439B01439704229002BC
:10203C00EEE0FFBF04149002EEE4F0901100E0908B
:10204C00005DF0539BF043970422BF05189002EEFD
:10205C00E4F0901100E0FEBE052E901101E0FEBEF2
:10206C007526021343BF06159002EEE4F0751B08AB
:10207C00901100122A3C539BF0439704229002EEDD
:10208C00E4F0539BF0439704229002EEE0FFBF0173
:10209C000A1220CE43970443970122BF02074397AD
:1020AC0001439708224397084397019002E9E0F512
:1020BC00962285822485832585F026856F2285705E
:1020CC002322E5224523700D9002EE7402F0539BFF
:1020DC00F0859B9B22AE22AF23C374089EE49F50D5
:1020EC00379002EE7401F0753008852482852583C3
:1020FC008526F012216BAC22AD23EC24F8FCED34D8
:10210C00FFFD8C228D2374082524F524E43525F558
:10211C0025539BF0439B0822BE0824BF002190024C
:10212C00EE7401F07530088524828525838526F0B0
:10213C0012216BE4F522F523539BF0439B0822906C
:10214C0002EE7402F0852230852482852583852653
:10215C00F012216B539BF0AF9BE5224FF59B22AD08
:10216C0082AE83AFF0E53024F75001228D6F8E7074
:10217C008F7185307275730090110875F000023FF5
:10218C0057AD82AE83AFF0756F007570117571002D
:10219C007572087573008D828E838FF0023F57AD78
:1021AC0082AE83AFF0E53124EF5001228D6F8E703B
:1021BC008F7185317275730090112075F000023F9C
:1021CC0057AD82AE83AFF0756F10757011757100DD
:1021DC007572107573008D828E838FF0023F57AD30
:1021EC0082AE83AFF0E53224BF5001228D6F8E702A
:1021FC008F7185327275730090118075F000023FFB
:10220C0057AD82AE83AFF0756F407570117571006C
:0F221C007572407573008D828E838FF0023F576D
:10498C0005010906A101050719E029E71500250114
:10499C0075019508810275089501810105071900BB
:1049AC0029FF150026FF00750895068100050819DA
:1049BC0001290515002501750195059102750395D1
:1049CC00019101C005010980A1018501198129838B
:1049DC001500250175019503810295058101C0051E
:1049EC000C0901A101850219002A3C021500263C84
:1049FC0002751095018100C00600FF0901A1018517
:104A0C000519012902150026FF0075089505B1024C
:104A1C00C00600FF0902A101850319012907150031
:104A2C0026FF0075089507B102C00631FF0974A175
:104A3C000185070975150026FF0075089520810270
:104A4C00C005010906A1018506050719E029E7152E
:104A5C0000250175019508810205071900299F158C
:104A6C00002501750195A08102C012011001000002
:104A7C0000088A2549000000010203010904000016
:104A8C000103010100092111010001224400070565
:104A9C008103100001090401000103000000092139
:104AAC001101000122A60007058203400001090242
:104ABC000000020100A0FA884A914A9A4AA14AAA27
:104ACC004AB34A0000BA4A04030904E74AF04AFE12
:104ADC004A764A000001D14A03D74A526564726192
:104AEC00676F6E005265647261676F6E204B363172
:074AFC0037003030303100BB
:09013D009002FCE4F09002FDF0D8
:10222B00AF810F8F0177AABFFFF8227FFFEF247AD0
:10223B00500A8F018706BEAA031F80F1EF247BF59E
:10224B0082229002FDE02401F0E06001221222368E
:10225B00AF829002FCE0C39F50279002FCEFF07E10
:10226B0000747AC0E0E4C0E0C007C0067403C0E0AD
:10227B00744BC0E07480C0E012411BE58124F9F57A
:02228B008122AE
:104B0300535441434B207065616B3A2025642F2534
:044B1300640D0A0023
:10228D00AF8243983E43A03F438807EF24F2404B73
:10229D00EF2F9022A373801A801B801C801D801E3F
:1022AD00801F80208021802280238024802580260D
:1022BD008027C28822C28922C28A22C2A522C2A434
:1022CD0022C2A322C2A222C2A122C2A022C29D2248
:1022DD00C29C22C29B22C29A22C29922E5F8C31344
:1022ED00FF530707E58854184F44E0F582225398B1
:1022FD00C153A0C05388F82212230F12234843A9BB
:10230D000222758C0575A500758C4575A600758C1A
:10231D008575BB00758CC5758D00758C0075E11CC0
:10232D0075E33E75E43F75E57875E68775E7FE75EF
:10233D00EE1875D90E43D180D2FF2290FF9C740404
:10234D00F090FF98E4F090FF9D7404F090FF99E4F5
:10235D00F090FF9E7404F090FF9AE4F075DE04F5A2
:10236D00DD75D504F5D2F5C3F5CE75D604F5D3F5E7
:10237D00C4F5C175D704F5D4F5C5F5C290FFBD748C
:10238D0004F090FFA5E4F090FFEDF090FFD5F090F4
:10239D00FFBC7404F090FFA4E4F090FFECF090FF0C
:1023AD00D4F090FFBB7404F090FFA3E4F090FFEB2A
:1023BD00F090FFD3F090FFBA7404F090FFA2E4F018
:1023CD0090FFEAF090FFD2F090FFB97404F090FF07
:1023DD00A1E4F090FFE9F090FFD1F090FFB8740404
:1023ED00F090FFA0E4F090FFE8F090FFD0F090FFA8
:1023FD00C37404F090FFABE4F090FFF3F090FFDBBB
:10240D00F090FFC27404F090FFAAE4F090FFF2F098
:10241D0090FFDAF090FFC17404F090FFA9E4F09002
:10242D00FFF1F090FFD9F090FFC07404F090FFA879
:10243D00E4F090FFF0F090FFD8F090FFBF7404F03F
:10244D0090FFA7E4F090FFEFF090FFD7F022AF825E
:10245D00BFA502800ABFA6028009BFA70E80089003
:10246D00000122900002229000042290000022AF71
:10247D0082BFA8005003022541EF243D50030225E1
:10248D0041EF2458FF240A83F582EF241F83F5833F
:10249D00E473D5D9DDE1E5F1F9FDF501050915196E
:1024AD001D21252935E9ED2D310D11393D2424242A
:1024BD0024242424242425252525252525252525C5
:1024CD0024242525252525259000E2229000E922AA
:1024DD009000EA229000B5229000B6229000B3221F
:1024ED009000B4229000B7229000CC229000CD2213
:1024FD009001832290018A229001922290019422D0
:10250D0090019F229001CB22900221229002232242
:10251D009002242290022522900226229002272248
:10252D0090006F229000702290022A2290029F222A
:10253D009002A022900000229002FFE0F582227509
:10254D00820022900302E0F58222AF828F1290006A
:10255D002175F000C007120DDA120A6CD0078F1327
:10256D0090002175F000120E12020A6CE582FF70C8
:10257D00047D278007741D2FFD3395E08D8222E5A4
:10258D008224FFE433FF9002FFE0B50701229002A1
:10259D00FFEFF0EF7009900300E4F0900301F0EF0E
:1025AD0060047F0280027F018F82022C0F22E58260
:1025BD0024FFE433FF900302E0B5070122900302EC
:1025CD00EFF0EF6009758288120E9E120A6C90036F
:1025DD0002E060047F0280027F018F82022C0FAE29
:1025ED0082AF83BE0454BF0051E519601F900300F4
:1025FD007401F0900301E0600F75130790002175D1
:10260D00F000120E12120A6C75820122900300E482
:10261D00F0900301E0601F75130490002175F00028
:10262D00120E1275120790002175F000120DDA12BC
:10263D000A6C7582002275820122BE0754BF0051BB
:10264D00E519601F9003017401F0900300E0600F25
:10265D0075130490002175F000120E12120A6C759C
:10266D00820122900301E4F0900300E0601F7513D6
:10267D000790002175F000120E12751204900021C2
:10268D0075F000120DDA120A6C7582002275820146
:10269D002275820122AE82AF838E048F0574812D47
:1026AD005056C3EC9446ED947F504DE51A60458E1F
:1026BD00038B0275F00EEA84FA75F00EEB84ABF025
:1026CD00EA2404F582C003122557D0038B0275F05E
:1026DD000AEA84F582C003122579122557D00375B5
:1026ED00F00AEB84ABF08B82122579122557758297
:1026FD002C12255775820022900302E0FBE0601F2B
:10270D00BCE305BD00028006BCE714BD0011E51A4F
:10271D006009758288120E9E120A6C7582002290D5
:10272D0002FFE0FAE06018BC0405BD00028006BCA3
:10273D00070DBD000A851A198E828F830225ECC301
:10274D00EE9440EF947E500302284DC374499E745D
:10275D007E9F500302284DEC24C0FC2C2C90276E3C
:10276D007302278C0227970227A20227AD0227B8F2
:10277D000227C30227CD0227DE022810022842E5D8
:10278D001A6003122D4E75820022E51A6003122E77
:10279D003D75820022E51A6003122E5E75820022BD
:1027AD00E51A6003122E6175820022E51A6003128C
:1027BD002E7E758200229002FEE51AF075820022AF
:1027CD00E51A60099002FEE06003122C8975820003
:1027DD0022E51A602A9002FFEAB40100E433F0907A
:1027ED0002FFE07009900300E4F0900301F0900205
:1027FD00FFE060047F0280027F018F82122C0F7533
:10280D00820022E51A602A900302EBB40100E43342
:10281D00F0900302E06009758288120E9E120A6C18
:10282D00900302E060047F0280027F018F82122CF0
:10283D000F75820022E51A6003122C2B758200227F
:10284D0075820122AF8302150EAF8302154BAF8344
:10285D00021588AF82BFA502800ABFA6028009BFFC
:10286D00A70E800890000122900002229000042201
:10287D0090000022AF82BFA8005003022946EF242A
:10288D003D5003022946EF2458FF240A83F582EFB9
:10289D00241F83F583E473DADEE2E6EAF6FE02FA3C
:1028AD00060A0E1A1E22262A2E3AEEF2323612167B
:1028BD003E42282828282828282928292929292955
:1028CD00292929292928282929292929299000E276
:1028DD00229000E9229000EA229000B5229000B6E5
:1028ED00229000B3229000B4229000B7229000CC29
:1028FD00229000CD229001832290018A2290019294
:10290D00229001942290019F229001CB22900221CE
:10291D002290022322900224229002252290022648
:10292D00229002272290006F229000702290022A9E
:10293D002290029F229002A02290000022AE82AF30
:10294D00837D00C007C006C005122E36AC82C004C0
:10295D00122545E582D004D005D006D00760027D52
:10296D0001C007C006C005C004122550E582D00481
:10297D00D005D006D0076003430502EC24FB5002BE
:10298D007C00530407ECC454F0FCED42048E828F9E
:10299D00837403F08E828F83A3744BF08E828F83AA
:1029AD00A3A37401F08E828F83A3A3A3ECF0740410
:1029BD002EFCE43FFDC007C006C005C004122E1A50
:1029CD00AB82D004D005D006D0078C828D83EBF07E
:1029DD0074052EFCE43FFDC007C006C005C00412FF
:1029ED002E21AB82D004D005D006D0078C828D83EA
:1029FD00EBF074062EFCE43FFDC007C006C005C019
:102A0D0004122E28AB82D004D005D006D0078C82BC
:102A1D008D83EBF074072EFEE43FFFC007C0061256
:102A2D002E2FAD82D006D0078E828F83EDF022AE91
:102A3D0082AF837D0074FF251B4001228E828F8320
:102A4D00E0FCBC030974FE251B4001227D01ED2E27
:102A5D00F582E43FF583E0FC8D030BC3EB951B5032
:102A6D000DED042EF582E43FF583E0FF80027F003B
:102A7D00EC24F5500122EC2C902A897380498012A8
:102A8D0080158018801B801E80278035803680370A
:102A9D00802A8F82022D668F82022D848F82022DD5
:102AAD00A28F82022DC7EF60027401FE8E82022575
:102ABD008CEF60027401FE8E820225BB8F82022D87
:102ACD00F5022D4E02109722AF82BFA502800ABFDC
:102ADD00A6028009BFA70E80089000012290000277
:102AED00229000042290000022AF82BFA800500364
:102AFD00022BBBEF243D5003022BBBEF2458FF24C8
:102B0D000A83F582EF241F83F583E4734F53575BDC
:102B1D005F6B73776F7B7F838F93979B9FA3AF6360
:102B2D0067A7AB878BB3B72B2B2B2B2B2B2B2B2BE0
:102B3D002B2B2B2B2B2B2B2B2B2B2B2B2B2B2B2BD8
:102B4D002B2B9000E2229000E9229000EA229000C7
:102B5D00B5229000B6229000B3229000B4229000CE
:102B6D00B7229000CC229000CD22900183229001BB
:102B7D008A22900192229001942290019F2290012D
:102B8D00CB22900221229002232290022422900235
:102B9D002522900226229002272290006F2290007B
:102BAD00702290022A2290029F229002A022900071
:102BBD0000229000E4E0FFBF01004005EF24FA5031
:102BCD00027F041FEF904B7593F58222AF82BF8079
:102BDD000040078F0674FFC39EFFEF2FF5822290F2
:102BED0000E27405F09000E314F09000E4F0900022
:102BFD00E5E4F09000E6F09000E704F09000E8E4E2
:102C0D00F022AF82BF010050027F01EF24FA500283
:102C1D007F059003E2EFF09003E1745AF0229003E8
:102C2D00E7E0FE7F008E828F83A3756F058F701294
:102C3D0048A1AE829003E7EEF0E0FF0F8F82022CE9
:102C4D000F9003E3E4F0A3F09003E5F09003E6E0CA
:102C5D0070059003E8E4F0229003E67401F0022F72
:102C6D00209003E6E07001229003E6E4F09003E586
:102C7D00F09003E3F0A3F09003E8F022122BEC02A6
:102C8D0010979003D5E4F09003D6F09003D7F09011
:102C9D0003D8F09003D9F09003DAF09003DB04F041
:102CAD009003DCE4F09003DDF0A3F09003DF14F06B
:102CBD009003E0E4F09003E1F09003E204F0900360
:102CCD00E3E4F0A3F09003E5F09003E6F09003E762
:102CDD00F09003E8F0122BEC12108E9000E2E0243D
:102CED00F850069000E27405F09000E3E0FFBF0598
:102CFD000040069000E37404F09000E4E0FFBF0193
:102D0D00004005EF24FA50069000E47404F09000A2
:102D1D00E8E0FFBF050040059000E8E4F09000E515
:102D2D00E0FFBF3502800F9000E27405F09000E5E2
:102D3D007435F0121097D2FF123200122E94023D0C
:102D4D00AF9000E2E0FF0F9000E2EFF0EF24F850BB
:102D5D00059000E2E4F0021097E582FF24F850029E
:102D6D007F079000E2EFF09003E3E4F0A3F090030F
:102D7D00E5F09003E8F022AF82BF050040027F042A
:102D8D009000E3EFF09003E3E4F0A3F09003E5F09F
:102D9D009003E8F022AF82BF010050027F01EF24C3
:102DAD00FA50027F059000E4EFF09003E3E4F0A306
:102DBD00F09003E5F09003E8F022AF82BF050040EC
:102DCD00027F049003E7EFF09003E3E4F0A3F090AB
:102DDD0003E5F09003E6E070059003E8E4F090035E
:102DED00D8E4F09003D9F022AF82BF050040027FF6
:102DFD00049000E8EFF09003E3E4F0A3F09003E516
:102E0D00F09003E6E070059003E8E4F0229000E214
:102E1D00E0F582229000E3E0F582229000E4E0F5F7
:102E2D0082229003E7E0F582229000E8E0F582220D
:102E3D009000E3E0FF7E008F828E83A3756F058E79
:102E4D00701248A1AE829000E3EEF00E8E82022C3D
:102E5D000F022E3D9000E4E0FFBF050092034004F9
:102E6D007E0180030F8F069000E4EEF08E82022C1F
:102E7D000F022E61122E87023DFB5380E353B08764
:102E8D0053887F53C0012275C30475CE0075C404E9
:102E9D0075C10075C50475C20090FFED7404F09006
:102EAD00FFD5E4F090FFEC7404F090FFD4E4F090C3
:102EBD00FFEB7404F090FFD3E4F090FFEA7404F09C
:102ECD0090FFD2E4F090FFE97404F090FFD1E4F0AC
:102EDD0090FFE87404F090FFD0E4F090FFF37404D9
:102EED00F090FFDBE4F090FFF27404F090FFDAE471
:102EFD00F090FFF17404F090FFD9E4F090FFF074BE
:102F0D0004F090FFD8E4F090FFEF7404F090FFD739
:102F1D00E4F022123200122E87122E949003E874E0
:102F2D0001F0229003E0E0B401009204E43324FFA9
:102F3D0092FF22120524AF82BF01028003022FD31C
:102F4D007535097536007537C87538FF75820412E9
:102F5D0032649003E9E4F09003EAE4F09003E9E0D1
:102F6D00FF75F01CA42426FDE4344CFE9003EAE02A
:102F7D00FC25E02DF582E43EF583E493FDA3E49377
:102F8D00FE9003F5EDF0EEA3F0C3ED9440EE947ECC
:102F9D004018ED944AEE947E50108C3575360075C0
:102FAD0037C87538FF8F821232649003EAE024012E
:102FBD00F0E0FFBF0E0040A49003E9E02401F0E033
:102FCD00FFBF05004091122545E582604875350229
:102FDD007536FF75370075380075820112326475CC
:102FED0035017536FF75370075380075820212325E
:102FFD00647535027536FF753700753800758202B8
:10300D001232647535037536FF75370075380075E6
:10301D008202123264122550E582601275350175F7
:10302D0036FF75378C75380075820402326422AF15
:10303D0082C007120524AE82D007BE0161BF0416FF
:10304D007409B533118533357536007537C8753844
:10305D00FF8F82023264EF75F01CA42426FDE43448
:10306D004CFEE53325332DF582E43EF583E493FDE7
:10307D00A3E493FE9003F5EDF0EEA3F0C3ED9440C1
:10308D00EE947E4019ED944AEE947E5011853335C1
:10309D007536007537C87538FF8F82023264C007E8
:1030AD00122545E582D007603CBF01077402B53398
:1030BD00028021E4BF020104FE60077401B53302F2
:1030CD008012EE60077402B533028008EE6016744C
:1030DD0003B533118533357536FF753700753800F7
:1030ED008F82023264C007122550E582D007601925
:1030FD00BF04167401B533118533357536FF753739
:10310D008C7538008F82023264229003E6E0700CD9
:10311D009003E5E070069003E8E0600475820022FC
:10312D009003DBE070299003E1E07023122545E563
:10313D0082701C122550E5827015120524E58270EF
:10314D000E9000E2E0FFBF07004004C2058002D2EE
:10315D0005A205E433F582221248859003E003545D
:10316D0001F0122F309003E6E070069003E5E06069
:10317D00109003E8E07005122F208042122E9480EB
:10318D003D9003DBE070069003E1E0601CE53470D8
:10319D001B9003DAE02401F0E0FFBF0200400D9028
:1031AD0003DAE4F012353D800312353D123117E597
:1031BD00826008123A57123AD58003122E9490036A
:1031CD00D6E02401F0E0FFBF030040189003D6E4E1
:1031DD00F09003D5E02401F0E0FFBF05004005901D
:1031ED0003D5E4F07582002290FF80E053E0DFF01C
:1031FD00023DAF9003E9E4F09003EBE4F09003EAB5
:10320D00E4F09003E9E075F02AA42403FE7403357D
:10321D00F0FF9003EBE075F00EA42EFEE43FFF905F
:10322D0003EAE02EF582E43FF583E4F09003EAE053
:10323D002401F0E0FFBF0E0040C89003EBE0240135
:10324D00F0E0FFBF030040B59003E9E02401F0E09A
:10325D00FFBF050040A222AF82E5367044E537700E
:10326D0040E538703CEF75F02AA42403FD74033556
:10327D00F0FEE535FC2DF582E43EF583E4F0740EA9
:10328D002DFAE43EFBEC2AF582E43BF583E4F07481
:10329D001C2DFDE43EFEEC2DF582E43EF583E4F0BD
:1032AD00229003E7E0FEBE050040027E00EE904B4B
:1032BD007F93F53974FFC39539F53AEF75F02AA46C
:1032CD002403FC740335F0FFE535F53F2CF53DE4A3
:1032DD003FF53E85363B753C00AD3A7E008D6F8ED9
:1032ED0070853B82853C83C007C006C005C00412B3
:1032FD003FE785823B85833C85396F757000900073
:10330D00FF123FE7A982AA83D004D005D006D007CB
:10331D00A83BAB3CE928EA3B853D82853E83F074B2
:10332D000E2CF8E43FFBE53F28F53DE43BF53EA8C8
:10333D00377B008D6F8E7088828B83C007C006C06F
:10334D0005C004C002C001123FE7A882AB83D001C3
:10335D00D002D004D005D006D007E928EA3B853D40
:10336D0082853E83F0741C2CFCE43FFFE53F2CFC72
:10337D00E43FFFA8387B008D6F8E7088828B83C0F1
:10338D0007C004C002C001123FE7AD82AE83D00179
:10339D00D002D004D007E92DEA3E8C828F83F02233
:1033AD00E58275F02AA42403FE740335F0FFE56F62
:1033BD00FD2EF582E43FF583E570F0740E2EFBE4EF
:1033CD003FFCED2BF582E43CF583E571F0741C2E8A
:1033DD00FEE43FFFED2EF582E43FF583E572F0222A
:1033ED00AF82AD437E009000E3E0FCBC05004002DF
:1033FD007C04EC904B7093F56F7570008D828E830D
:10340D00C007123FE7AE83D0078E43AD427E0090DA
:10341D0003E7E0FCBC050040027C00EC904B7A9386
:10342D00F56F7570008D828E83C007123FE7AE83F6
:10343D00D007EEF54270118540358543368543370B
:10344D008543388F82023264AE419003F4EEF0BEB4
:10345D005500501F8E05ED75F003A4D394FFF49025
:10346D0003F1F09003F2E4F09003F3EE75F003A492
:10347D00F0804FBEAA0050278E05ED24ABFD9003C2
:10348D00F4F09003F1E4F09003F2ED75F003A4F085
:10349D00ED75F003A4D394FFF49003F3F08023EEC5
:1034AD002456FE9003F4F09003F1EE75F003A4F0B2
:1034BD00EE75F003A4D394FFF49003F2F09003F3B0
:1034CD00E4F09003F1E0FD7E00AB437C008B6F8C4C
:1034DD00708D828E83C007C004C003123FE7AE8398
:1034ED00D003D0048E059003F2E0FA7E008B6F8C32
:1034FD00708A828E83C005C004C003123FE7AE837D
:10350D00D003D0048E029003F3E0F97E008B6F8C14
:10351D007089828E83C002123FE7AE83D002D00540
:10352D00D0078E388540358D368A378F82023264CA
:10353D009003E1E0603C1232009003EBE4F0900365
:10354D00EBE0FF9003E2E0FEC3EF9E501B0F8F35C3
:10355D007536FF7537FF7538FF758200123264902E
:10356D0003EBE02401F080D6122F409003E1E0142C
:10357D00F0229003DBE070030236DF12320090037D
:10358D00EBE4F09003EBE0FFFD7E008D8375820090
:10359D00756F068E70C007123F2EAD82D007900357
:1035AD00F0EDF09003DCE0C39DFE9003EEF0BE9BCA
:1035BD000040030236878E6F7570009000FFC007C4
:1035CD00123FE7756F9B757000123F2EAD8274FF31
:1035DD00C39DFD7E009003DFE0F56F8E708D828EB2
:1035ED0083123FE7AE83D0079003ECEEF0EE24FD9F
:1035FD004003023687EF904B8E93FDEF904B9493E3
:10360D00FF8E037C008B6F8C70900006C007C00688
:10361D00C005C004C003123FE7A982AA83D003D01E
:10362D0004D005D006D007EAC423C9C423541F69AA
:10363D00C9541FC969C930E40244E08B6F8C709086
:10364D000007C007C006C005C001123FE7AB82AC42
:10365D0083D001D005D006D007ECC423CBC42354AE
:10366D001F6BCB541FCB6BCB30E40244E08B718FBF
:10367D006F89708E728D821233AD9003EBE0240151
:10368D00F0E0FFBF060050030235909003DCE0FF31
:10369D000F0FEFF09003DDE0FEA3E0FF8E048F052A
:1036AD00C3EC9408ED9402500C9003DD74012EF0E0
:1036BD00E43FA3F0229003DFE0FF24FD50081F1F1D
:1036CD009003DFEFF0229003DFE4F09003DBF002D4
:1036DD0032009000E2E0FF9003EFF09003D8E0FE9F
:1036ED009003E9F09003D9E0FD9003EAF0BE031BCF
:1036FD00BD0B028008BD0C02800302379C9003E9CC
:10370D007403F09003EAE4F002379CBE04028003D8
:10371D0002379CED700D9003E97403F09003EAE419
:10372D00F0806CBD010E9003E97403F09003EA7410
:10373D0001F0805BBD020D9003E97403F09003EA84
:10374D0014F0804BBD03004013ED24F8400E9003A0
:10375D00E97403F09003EA7405F08033BD080E9010
:10376D0003E97403F09003EA7409F08022BD090E99
:10377D009003E97403F09003EA740AF08011BD0A16
:10378D0000400C9003E97403F09003EA740DF0BF50
:10379D0007004062EE75F02AA42403FB740335F094
:1037AD00FCED2BF582E43CF583E4F09003D8E07555
:1037BD00F02AA42403FB740335F0FC740E2BFBE4F8
:1037CD003CFC9003D9E02BF582E43CF583E4F090CA
:1037DD0003D8E075F02AA42403FB740335F0FC74C0
:1037ED001C2BFBE43CFC9003D9E02BF582E43CF56B
:1037FD0083E4F00239ADEF703C9003E9E075F00E13
:10380D00A42417FB744B35F0FC9003EAE02BFBE48A
:10381D003CFC9003D7E0FA8B828C83E4932AFA90D8
:10382D0003EDF08D408A417542FF7543FF8E821284
:10383D0033ED0239ADBF01259003EAE0904B5D9366
:10384D00FC9003D7E02CFC9003EDF08D408C41757E
:10385D0042FF7543FF8E821233ED0239ADBF024236
:10386D009003E9E075F00EA42417FB744B35F0FCC2
:10387D009003EAE0FA2BF582E43CF583E493FC90A7
:10388D0003D7E02CFCEA75F00EA42CFA9003EDF0B2
:10389D008D408A417542FF7543FF8E821233ED02D2
:1038AD0039ADBF035C9003EAE0FCBC0700501F8CF0
:1038BD0003EB75F016A4FB9003D7E02BFB9003E907
:1038CD00E075F028A4D39BF49003EDF0801D9003D8
:1038DD00D7E0FBC3E49BFBEC75F016A42BFC900327
:1038ED00E9E075F028A42C9003EDF09003EDE0F5E0
:1038FD00418D407542FF7543FF8E821233ED0239C3
:10390D00ADBF04309003EAE075F013A4FC9003D72B
:10391D00E02CFC9003E9E075F025A4D39CF4FC9019
:10392D0003EDF08D408C417542FF7543FF8E821281
:10393D0033ED806CBF05259003EAE075F012A4FF0E
:10394D009003D7E0C39FFF9003EDF08D408F41753D
:10395D0042FF7543FF8E821233ED80449003EAE0FF
:10396D00FF24F950088F04EC24FAFC80057406C37B
:10397D009FFC9003EEECF0EC75F01CA4FC9003D7CB
:10398D00E02CFC9003E9E075F016A42CFC9003EDFF
:10399D00F08D408C417542FF7543FF8E821233EDE1
:1039AD009003D8E0FF9003D9E0F5338F8212303CBD
:1039BD009003D9E02401F0E0FFBF0E0050012290EA
:1039CD0003D9E4F09003D8E02401F0E0FFBF050037
:1039DD005001229003D8E4F09003EFE0FFBF070001
:1039ED005067122BBFAF829003D7E02FF09000E805
:1039FD00E0FF9003F0F0BF050040059003F0E4F008
:103A0D009003F0E075F002A42484F582744B35F038
:103A1D00F583E493FEA3E493FF9003F5EEF0EFA39B
:103A2D00F0EE4F60249003E3E0FCA3E0FDC3EC9EB9
:103A3D00ED9F500C9003E374012CF0E43DA3F022B4
:103A4D009003E57401F0022F20229003D5E0FF24AE
:103A5D00FB500122EF2F903A67738008801A802C5B
:103A6D00803E80509003D6E0FFE07003D28422BFE9
:103A7D000103D2C122D283229003D6E0FFE070036E
:103A8D00D2C722BF0103D2C222D2C6229003D6E0F2
:103A9D00FFE07003D28222BF0103D2C322D28F2254
:103AAD009003D6E0FFE07003D2B522BF0103D2C46C
:103ABD0022D2B6229003D6E0FFE07003D2B322BF2C
:103ACD000103D2C522D2B4229003D5E075F02AA409
:103ADD002403FE740335F0FF9003D6E075F00EA4B9
:103AED002EFEE43FFF8E828F83E0FDFB7C002BFBDF
:103AFD00EC33FCEB2BFBEC33FCE4C39B74049CF527
:103B0D00C3ED2D25E0FDC3E49DF5CE8E828F83A3FD
:103B1D00E0FDFB7C002BFBEC33FCEB2BFBEC33FCD7
:103B2D00E4C39B74049CF5C4ED2D25E0FDC3E49D19
:103B3D00F5C18E828F83A3A3E0FDFB7C002BFBECF4
:103B4D0033FCEB2BFBEC33FCE4C39B74049CF5C5FD
:103B5D00ED2D25E0FDC3E49DF5C274032EFCE43F7D
:103B6D00FD8C828D83E07A0025E0FBEA33FAEB2BA6
:103B7D00FBEA33FAE4C39B74049A90FFEDF08C8258
:103B8D008D83E025E025E0FC90FFD5C3E49CF07427
:103B9D00042EFCE43FFD8C828D83E07A0025E0FB52
:103BAD00EA33FAEB2BFBEA33FAE4C39B74049A90E5
:103BBD00FFECF08C828D83E025E025E0FC90FFD4B6
:103BCD00C3E49CF074052EFCE43FFD8C828D83E0F4
:103BDD007A0025E0FBEA33FAEB2BFBEA33FAE4C378
:103BED009B74049A90FFEBF08C828D83E025E02589
:103BFD00E0FC90FFD3C3E49CF074062EFCE43FFD83
:103C0D008C828D83E07A0025E0FBEA33FAEB2BFB07
:103C1D00EA33FAE4C39B74049A90FFEAF08C828D28
:103C2D0083E025E025E0FC90FFD2C3E49CF074070F
:103C3D002EFCE43FFD8C828D83E07A0025E0FBEACB
:103C4D0033FAEB2BFBEA33FAE4C39B74049A90FF2F
:103C5D00E9F08C828D83E025E025E0FC90FFD1C357
:103C6D00E49CF074082EFCE43FFD8C828D83E07A99
:103C7D000025E0FBEA33FAEB2BFBEA33FAE4C39BB6
:103C8D0074049A90FFE8F08C828D83E025E025E0A6
:103C9D00FC90FFD0C3E49CF074092EFCE43FFD8C36
:103CAD00828D83E07A0025E0FBEA33FAEB2BFBEA09
:103CBD0033FAE4C39B74049A90FFF3F08C828D83E6
:103CCD00E025E025E0FC90FFDBC3E49CF0740A2EB8
:103CDD00FCE43FFD8C828D83E07A0025E0FBEA3326
:103CED00FAEB2BFBEA33FAE4C39B74049A90FFF2D0
:103CFD00F08C828D83E025E025E0FC90FFDAC3E4B3
:103D0D009CF0740B2EFCE43FFD8C828D83E07A00D9
:103D1D0025E0FBEA33FAEB2BFBEA33FAE4C39B74A1
:103D2D00049A90FFF1F08C828D83E025E025E0FC74
:103D3D0090FFD9C3E49CF0740C2EFCE43FFD8C8203
:103D4D008D83E07A0025E0FBEA33FAEB2BFBEA33B7
:103D5D00FAE4C39B74049A90FFF0F08C828D83E09B
:103D6D0025E025E0FC90FFD8C3E49CF0740D2EFEF9
:103D7D00E43FFF8E828F83E07C0025E0FDEC33FC79
:103D8D00ED2DFDEC33FCE4C39D74049C90FFEFF02E
:103D9D008E828F83E025E025E0FE90FFD7C3E49E61
:103DAD00F02290FF8074CAF090FF817408F090FFAC
:103DBD0082F090FF83F090FF84F090FF85F090FFEC
:103DCD0086748AF090FF877408F090FF88F090FF5A
:103DDD0089F090FF8AF090FF8BF090FF8C748AF041
:103DED0090FF917408F075DA8AF5DBF5DC2290FF0F
:103DFD00807402F090FF81E4F090FF82F090FF83D9
:103E0D00F090FF84F090FF85F090FF867402F090A3
:103E1D00FF87E4F090FF88F090FF89F090FF8AF023
:103E2D0090FF8BF090FF8C7402F090FF91E4F07591
:073E3D00DA02F5DBF5DC22DF
:104B1700FFD7B09C75624E4E62759CB0D7FFFFD72A
:104B2700B089623A27273A6289B0D7FFFFD7B089A1
:104B3700623A13133A6289B0D7FFFFD7B089623A56
:104B470027273A6289B0D7FFFFD7B09C75624E4ED0
:104B570062759CB0D7FF00122436495B6D8092A422
:104B6700B6C9DBED00336699CC82AFD7F5FF0102FA
:104B7700030406FFDCB991690016304E6EC409883C
:104B8700131027204E000001010203030206070746
:034B97000605050B
:103E4400AF82BFA502800ABFA6028009BFA70E8069
:103E540008900001229000022290000422900000A9
:103E640022AF82BFA8005003023F2AEF243D500333
:103E7400023F2AEF2458FF240A83F582EF241F838C
:103E8400F583E473BEC2C6CACEDAE2E6DEEAEEF237
:103E9400FE02060A0E121ED2D6161AF6FA22263E82
:103EA4003E3E3E3E3E3E3E3E3E3E3E3E3F3F3F3F2A
:103EB4003F3F3E3E3F3F3E3E3F3F9000E222900068
:103EC400E9229000EA229000B5229000B6229000E8
:103ED400B3229000B4229000B7229000CC2290002C
:103EE400CD229001832290018A2290019222900196
:103EF400942290019F229001CB22900221229002D1
:103F0400232290022422900225229002262290024B
:103F1400272290006F229000702290022A229002A1
:0A3F24009F229002A02290000022CC
:104B9A0029001E001F0020002100220023002400FB
:104BAA002500260027002D002E002A002B001400C5
:104BBA001A000800150017001C0018000C0012004B
:104BCA0013002F00300031003900040016000700DE
:104BDA0009000A000B000D000E000F00330034001C
:104BEA0031002800E1001D001B0006001900050025
:104BFA001100100036003700380064006400E50038
:104C0A00E000E300E200000000002C0000000000C9
:104C1A00E60021526500E4006500650035003A00AF
:104C2A003B003C003D003E003F0040004100420086
:104C3A004300440045000100457E477E5200AA0019
:104C4A00A90001000100010001000100460049001D
:104C5A004C0001000100500051004F00010001000A
:104C6A0001000100010001004B004E00010001009B
:104C7A000100010001000100467E0100497E417EDB
:104C8A00437E4A004D000100010001000100487EF8
:104C9A00010000000000010000000000407E010049
:084CAA00010001000000000000
:103F2E007A10E4FBFCE58225E0F582E58333F58328
:103F3E00EB33FBEC33FCEB956FF5F0EC9570400634
:093F4E00FCABF0438201DADD2234
:06010D00E478FFF6D8FDC6
:103F5700AD82AE83AFF08D748E758F76856F778562
:103F67007078857179A872A9738803890418B8FFD6
:103F77000119EB4C60258577828578838579F01266
:103F87004885FCA38582778583788D828E838FF021
:103F9700EC123FCCA3AD82AE8380CE85748285754B
:103FA700838576F022AC82AD83AE70AF71BE00041C
:103FB700EF600C1F0FE56F123FCCA3DEFADFF88C22
:043FC700828D832242
:1000EB007904E94400601B7A01904CBD78F775A048
:1000FB0003E493F2A308B8000205A0D9F4DAF27571
:02010B00A0FF53
:013FCB0022D3
:1000B400C000A88118C0D0B6001B18B67000401547
:1000C400B697005010C0E0E65407B406005004E6AA
:0A00D40054F8F6D0E0D0D0D000328E
:103FCC0020F71130F6138883A88220F509F6A88310
:103FDC007583002280FEF280F5F022E582856FF079
:103FEC00A4C582C0F08570F0A4D0F025F0C58385FF
:103FFC006FF0A42583F583222275820122E56F459B
:10400C007060467A01E56F25E0F56FE5703340127C
:10401C00F570E582956FE583957040030A80E6C3E1
:10402C00E57013F570E56F13F56FC3E582956FF5C9
:10403C00F0E58395704005F58385F082C3E5701338
:10404C00F570E56F13F56FDAE1228582748583755F
:10405C0085F076E5724573700490000022AA6FAB70
:10406C0070AC71A872A97318B8FF0119E8496043C4
:10407C00C000C001AD74AE75AF768D828E838FF0AB
:10408C00124885FD8A018B068C0789828E838FF0FE
:10409C00124885F9EDB501028006D001D0008013DD
:1040AC00D001D0000574E4B5740205750ABA00B7E6
:1040BC000B80B48A6F8B708C71AD74AE75AF768DCE
:1040CC00828E838FF0124885FD7F00AB6FAC70AE93
:1040DC00718B828C838EF0124885FB7E00EDC39B26
:0740EC00F582EF9EF583222F
:100113007800E84400600A790075A000E4F309D888
:10012300FC78F7E84403600C7904900000E4F0A342
:04013300D8FCD9FA21
:1040F300C01D85811D7E008E831213DDD01D228598
:10410300825485835585F056E4F551F552F5538570
:104113001C579040F30241D9C01DE581F51D24FBD6
:10412300F557E4F551F552F553E51D24FBF8865494
:104133000886550886569040F31241D9D01D22AF08
:1041430082C047C048C04912414F8007C045C0469E
:104153008F8222158115811581054FE4B54F020524
:104163005022AF8274302FFF24C6500B74072FFFE9
:10417300E54460034307208F82024142E582FFC486
:10418300540FF582C007124165D007740F5FF582A3
:1041930002416585826FAB4AAC4BAD4CAE4DAA4E26
:1041A300757120EA2AF570EE2354014570FAEB2B62
:1041B300FBEC33FCED33FDEE33FEC3EA956F4008B1
:1041C300EAC3956FFA430301D571D88B4A8C4B8DA3
:1041D3004C8E4D8A4E22858245858346855147857F
:1041E3005248855349E4F54FF550AD54AE55AF569B
:1041F3008D828E838FF0124885FC74012DF554E473
:104203003EF5558F56ECFF7003024866BF250280CA
:104213000302485EE4F558F559F55AF55BF55CF58C
:104223005DF55EF55FF561F562F5637564FF7565D0
:10423300FFAC54AD55AE568C828D838EF0124885FB
:10424300F569A3AC82AD838C548D558E567425B518
:104253006908856982124142809074D025694003C0
:104263000242FEE56924C650030242FE74FFB564B0
:104273004BB56548C004C005C00685626F85637091
:1042830090000AC006C005C004123FE7AA82AB83B0
:10429300D004D005D006AE697D00EE2AFAED3BFBD3
:1042A300EA24D0F562EB34FFF563E5624563D0069B
:1042B300D005D004708175590102423AC004C0058B
:1042C300C00685646F85657090000AC006C005C08E
:1042D30004123FE7AA82AB83D004D005D006AD69B0
:1042E3007E00ED2AFAEE3BFBEA24D0F564EB34FFC3
:1042F300F565D006D005D00402423A742EB569158F
:1043030074FFB56405B56502800302423AE4F564BF
:10431300F56502423A749F2569500EE5692485408C
:10432300085369DF75440180037544007420B5693F
:10433300030243CB742BB569030243C5742DB569DE
:104343000280797442B569030243D17443B56903AA
:104353000243DD7444B5690302456F7446B56903CE
:104363000245867448B5690302423A7449B5690344
:1043730002456F744AB5690302423A744CB5690247
:104383008052744FB569030245777450B5690302CF
:1043930045047453B5690280627454B569030242DB
:1043A3003A7455B5690302457C7458B569030245EF
:1043B30081745AB5690302423A02458B755801026A
:1043C300423A755A0102423A755B0102423A755DFF
:1043D3000102423A755E0102423AE55D600AE55721
:1043E30014F989578706800BE55724FEFD8D578DF9
:1043F3000187068E82124142024597E55724FDFE4E
:104403008E578E01870409870509870619198C4A77
:104413008D4B8E4C8C828D838EF012486D85826A13
:1044230085836B74FFB56409B56506856A64856B1E
:1044330065E558703DC3E56A9562E56B9563503257
:10444300E562C3956AF562E563956BF563AC62ABB0
:10445300638C028B061CBCFF011BEA4E6010758245
:1044630020C004C003124142D003D00480E38C6215
:104473008B63AD64AE65AA4AAB4BAC4C8A828B832B
:104483008CF0124885FC6033C3E49D74808EF06326
:10449300F08095F050251DBDFF011E8C82C006C023
:1044A30005124142D005D006AA4AAB4BAC4C0ABA1E
:1044B30000010B8A4A8B4B8C4C80BBE5587003027E
:1044C3004597C3E56A9562E56B956340030245979B
:1044D300E562C3956AF562E563956BF563AE62AD1C
:1044E300638E038D041EBEFF011DEB4C700302455A
:1044F30093758220C006C005124142D005D00680C4
:10450300E0E55724FDFC8C578C01870209870309DA
:10451300870419198A4A8B4B8C4CAC4CBC800040E5
:10452300047B438014BC600040047B50800BBC4080
:104533000040047B4980027B588B82C003124142B6
:1045430075823A1241427582301241427582781265
:104553004142D003BB4902800BBB50028006854B0E
:104563008212417F854A8212417F8028755C0175E2
:10457300610A8020756108801B75610A8016756168
:10458300108011755F01800C85698212414280049D
:104593008E628D63E55F605BE55724FCFE8E578E6C
:1045A3000187030987040987050987061919198BE8
:1045B3004A8C4B8D4C8E4D754AB2754B4C754C8065
:1045C300854A6C854B6D854C6E7401256CFAE43518
:1045D3006DFBAE6E8A4A8B4B8E4C856C82856D83E8
:1045E300856EF0124885FD70030241ED8D82124104
:1045F3004280CDE56170030241EDE55D6032E55730
:1046030014F9895787067D007C007B008E4A8D4B09
:104613008C4C8B4DE55C7072AB4AAC4BAD4CAE4DE4
:104623007C007D007E008B4A8C4B8D4C8E4D805AD6
:10463300E55E6021E55724FCFE8E578E0187030952
:1046430087040987050987061919198B4A8C4B8D2D
:104653004C8E4D8035E55724FEFE8E578E0187051F
:1046630009870619EE3395E0FCFB8D4A8E4B8C4C83
:104673008B4DE55C7014AB4AAC4BAD4CAE4D7D003D
:104683007E008B4A8C4B8D4C8E4DE55C602DAB4A86
:10469300AC4BAD4CE54D30E71FAB4AAC4BAD4CAE2C
:1046A3004DC3E49BFBE49CFCE49DFDE49EFE8B4A2E
:1046B3008C4B8D4C8E4D8003755C00756001797F4A
:1046C300E4F56CF56D754E00856182C0011241966B
:1046D300D001E5607013E54EC454F0FCE54EC454BC
:1046E3000F4204E74CF7198002A74E7401256CF5BD
:1046F3006CE4356DF56DE560B40100E433F560AA53
:104703004AAB4BAC4CAE4DEA4B4C4E70B889688506
:104713006C66856D67E56245637005756201F563D7
:10472300E559702FE558702BAA62AB63AE660E8E07
:10473300057E00C3ED9AEE9B5015758220C003C021
:1047430002124142D002D0031ABAFF011B80DD8A54
:10475300628B63E55C601175822D124142156274B0
:10476300FFB562021563802EE56645676028E55A4A
:10477300601175822B124142156274FFB5620215F6
:10478300638013E55B600F758220124142156274EA
:10479300FFB562021563E558702FAE62AD638E03F9
:1047A3008D041EBEFF011DC3E5669BE5679C503A61
:1047B300E55960047C3080027C208C82C006C005F1
:1047C300124142D005D00680D5C3E5669562E56700
:1047D3009563500FE562C39566F562E5639567F5EA
:1047E30063800BE4F562F56380048E628D63A968D0
:1047F300AD66AE678D038E041DBDFF011EEB4C60DD
:104803002FE560B40100E433F560700909E7C4548F
:104813000FF54E80078704740F5CF54E854E82C0FA
:1048230006C005C001124165D001D005D00680C481
:10483300E55870030241EDAD62AE638D038E041D36
:10484300BDFF011EEB4C70030241ED758220C006D3
:10485300C005124142D005D00680E08F821241424A
:0A4863000241ED854F82855083224B
:0B4CB2003C4E4F20464C4F41543E004A
:10486D00AA82AB831248856003A380F8C3E5829AC0
:08487D00F582E5839BF583221F
:0D00DE0075817F1248D8E58260030200B1F1
:1048850020F71430F6148883A88220F507E6A8835C
:1048950075830022E280F7E49322E022C2D5E58306
:1048A50030E70DD2D5E4C39582F582E49583F5838F
:1048B500E57030E70BE4C3956FF56FE49570F5701F
:1048C50012400930D50BE4C39582F582E49583F552
:0748D50083222275820022FC
:00000001FF
